:020000040800F2
:100000000000022035380108E5180108ED18010844
:10001000F5180108FD180108051901080000000085
:100020000000000000000000000000000D190108A1
:100030001B190108000000002919010837190108DF
:100040008538010885380108853801088538010898
:100050008538010885380108853801088538010888
:100060008538010885380108853801088538010878
:100070008538010885380108853801088538010868
:100080008538010885380108853801088538010858
:1000900059190108853801088119010885380108B6
:1000A0008538010885380108853801088538010838
:1000B0008538010885380108853801088538010828
:1000C0008538010885380108853801088538010818
:1000D00085380108A9190108853801088538010803
:1000E00085380108853801088538010885380108F8
:1000F00085380108853801088538010885380108E8
:1001000085380108853801088538010885380108D7
:1001100085380108853801088538010885380108C7
:1001200085380108853801088538010885380108B7
:1001300085380108853801088538010885380108A7
:100140006D1901088538010895190108451901083C
:100150008538010885380108853801088538010887
:100160008538010885380108853801088538010877
:10017000853801088538010885380108000000002D
:080180008538010885380108EB
:10019000034613F8012B002AFBD1181A01387047C7
:1001A00001F0FF01102A2BDB10F0070F08D010F828
:1001B000013B013A8B422DD010F0070F42B3F6D12C
:1001C000F0B441EA012141EA014122F007047FF045
:1001D00000070023F0E80256083C85EA010586EA9C
:1001E000010685FA47F5A3FA87F586FA47F6A5FAD8
:1001F00087F68EB9EED1F0BC01F0FF0102F00702E4
:1002000032B110F8013B013A83EA010313B1F8D18E
:100210000020704701387047002D06BF354603386F
:10022000073815F0010F07D1013015F4807F02BFA8
:10023000013015F4C03F0130F0BC0138704700BFF9
:1002400053B94AB9002908BF00281CBF4FF0FF313D
:100250004FF0FF3000F00CB8ADF1080C6DE904CEA2
:1002600014F07CFFDDF804E0DDE9022304B0704700
:10027000704700BF0348044B834202D0034B03B1D5
:10028000184770476C0100206C010020000000003E
:100290000548064B1B1AD90F01EBA301491002D0E8
:1002A000034B03B1184770476C0100206C0100201C
:1002B0000000000010B5064C237843B9FFF7DAFFC1
:1002C000044B13B10448AFF300800123237010BD29
:1002D0006C010020000000005454010808B5054BD3
:1002E0001BB105490548AFF30080BDE80840FFF7A2
:1002F000CFBF00BF0000000070010020545401086F
:1003000080B500AF0E4B1B680D4A43F400731360B9
:100310000B4B1B680A4A43F480631360084B1B684D
:10032000074A43F480731360032001F01DFC0F2083
:1003300000F008F811F036F90023184680BD00BF20
:10034000003C024080B582B000AF7860124B1A6862
:10035000124B1B7819464FF47A73B3FBF1F3B2FBDF
:10036000F3F3184601F035FC0346002B01D00123BE
:100370000EE07B680F2B0AD8002279684FF0FF301F
:1003800001F0FDFB064A7B681360002300E00123B7
:1003900018460837BD4680BDB40000200400002088
:1003A0000000002080B400AF064B1B781A46064BB5
:1003B0001B681344044A136000BFBD465DF8047B0C
:1003C000704700BF040000208801002080B400AF07
:1003D000034B1B681846BD465DF8047B704700BFA1
:1003E0008801002080B584B000AF7860FFF7EEFF91
:1003F000B8607B68FB60FB68B3F1FF3F05D00A4B38
:100400001B781A46FB681344FB6000BFFFF7DEFF52
:100410000246BB68D31AFA689A42F7D800BF00BFF9
:100420001037BD4680BD00BF0400002080B584B0F9
:1004300000AF78600023FB737B68002B01D10123A0
:1004400033E07B681B6C002B09D1786811F0D2F87F
:100450007B6800225A647B68002283F83C207B681A
:100460001B6C03F01003002B18D17B681B6C23F46A
:10047000885323F0020343F002027B681A64786811
:1004800000F0D8FA7B6800225A647B681B6C23F06A
:10049000030343F001027B681A6401E00123FB734C
:1004A0007B68002283F83C20FB7B18461037BD4652
:1004B00080BD000080B485B000AF78600023BB60D1
:1004C0007B6893F83C30012B01D10223B2E07B68BA
:1004D000012283F83C207B681B689B6803F00103C2
:1004E000012B18D07B681B689A687B681B6842F0F8
:1004F00001029A60524B1B68524AA2FB03239A0CDA
:1005000013465B001344BB6002E0BB68013BBB6069
:10051000BB68002BF9D17B681B689B6803F0010363
:10052000012B7AD17B681B6C23F4E06323F0010379
:1005300043F480727B681A647B681B685B6803F411
:100540008063002B07D07B681B6C23F4405343F47B
:1005500080527B681A647B681B6C03F48053B3F58C
:10056000805F06D17B685B6C23F006027B685A646F
:1005700002E07B6800225A647B68002283F83C20FA
:10058000314BFB607B681B686FF022021A60FB68CE
:100590005B6803F01F03002B2AD17B681B682B4A82
:1005A000934215D07B681B68294A934205D1264B9C
:1005B0005B6803F01F03002B0AD07B681B68254A89
:1005C000934236D1204B5B6803F01003002B30D1EF
:1005D0007B681B689B6803F04053002B29D17B6824
:1005E0001B689A687B681B6842F080429A6020E032
:1005F0007B681B68154A93421BD17B681B689B680C
:1006000003F04053002B14D17B681B689A687B6809
:100610001B6842F080429A600BE07B681B6C43F0E1
:1006200010027B681A647B685B6C43F001027B6894
:100630005A64002318461437BD465DF8047B7047A2
:10064000B400002083DE1B43002301400020014052
:10065000002101400022014080B483B000AF7860E7
:100660007B6893F83C30012B01D1022321E07B68A9
:10067000012283F83C207B681B689A687B681B68B2
:1006800022F001029A607B681B689B6803F00103FB
:10069000002B09D17B681B6C23F4885323F00103E2
:1006A00043F001027B681A647B68002283F83C20D7
:1006B000002318460C37BD465DF8047B704780B5B3
:1006C00084B000AF786039600023FB607B681B68F2
:1006D0009B6803F48063B3F5806F13D17B681B685C
:1006E0009B6803F48073B3F5807F0BD17B681B6C30
:1006F00043F020027B681A647B68002283F83C2068
:10070000012363E0FFF762FEF86021E03B68B3F18C
:10071000FF3F1DD03B68002B07D0FFF757FE024676
:10072000FB68D31A3A689A4212D27B681B681B682E
:1007300003F00203022B0BD07B681B6C43F0040216
:100740007B681A647B68002283F83C2003233DE029
:100750007B681B681B6803F00203022BD6D17B6801
:100760001B686FF012021A607B681B6C43F4007206
:100770007B681A647B681B689B6803F04053002BFE
:1007800023D17B681B7E002B1FD17B681B68DB6A33
:1007900003F47003002B06D07B681B689B6803F48E
:1007A0008063002B11D17B681B6C23F480727B6803
:1007B0001A647B681B6C03F48053002B05D17B68A3
:1007C0001B6C43F001027B681A6400231846103743
:1007D000BD4680BD80B483B000AF78607B681B6885
:1007E000DB6C18460C37BD465DF8047B7047000093
:1007F00080B485B000AF786039600023BB607B684F
:1008000093F83C30012B01D1022305E17B680122E2
:1008100083F83C203B681B68092B25D97B681B6843
:10082000D9683B681B689BB21A4613465B001344A9
:100830001E3B072202FA03F3DA437B681B680A4077
:10084000DA607B681B68D9683B689A683B681B68FC
:100850009BB2184603465B0003441E3B9A407B68EC
:100860001B680A43DA6022E07B681B6819693B68F1
:100870001B689BB21A4613465B001344072202FA18
:1008800003F3DA437B681B680A401A617B681B68C4
:1008900019693B689A683B681B689BB21846034617
:1008A0005B0003449A407B681B680A431A613B68FB
:1008B0005B68062B24D87B681B68596B3B685A68B9
:1008C00013469B001344053B1F2202FA03F3DA434D
:1008D0007B681B680A405A637B681B68596B3B68DE
:1008E0001B689BB218463B685A6813469B0013442A
:1008F000053B00FA03F27B681B680A435A634CE02D
:100900003B685B680C2B24D87B681B68196B3B68C1
:100910005A6813469B001344233B1F2202FA03F339
:10092000DA437B681B680A401A637B681B68196B93
:100930003B681B689BB218463B685A6813469B008D
:100940001344233B00FA03F27B681B680A431A63D3
:1009500023E07B681B68D96A3B685A6813469B0092
:100960001344413B1F2202FA03F3DA437B681B68FE
:100970000A40DA627B681B68D96A3B681B689BB2D5
:1009800018463B685A6813469B001344413B00FAE3
:1009900003F27B681B680A43DA62224BFB607B68C8
:1009A0001B68214A934209D13B681B68122B05D171
:1009B000FB685B6843F48002FB685A607B681B68D5
:1009C000194A934223D13B681B68102B03D03B6824
:1009D0001B68112B1BD1FB685B6843F40002FB68AA
:1009E0005A603B681B68102B11D1104B1B68104AD2
:1009F000A2FB03239A0C13469B0013445B00BB60CD
:100A000002E0BB68013BBB60BB68002BF9D17B688F
:100A1000002283F83C20002318461437BD465DF8B9
:100A2000047B70470023014000200140B4000020F7
:100A300083DE1B4380B485B000AF7860794BFB60E8
:100A4000FB685B6823F44032FB685A60FB685A68B5
:100A50007B685B681A43FB685A607B681B685A684E
:100A60007B681B6822F480725A607B681B68596837
:100A70007B681B691A027B681B680A435A607B68A3
:100A80001B685A687B681B6822F040725A607B685A
:100A90001B6859687B689A687B681B680A435A60C0
:100AA0007B681B689A687B681B6822F400629A6006
:100AB0007B681B6899687B68DA687B681B680A43F7
:100AC0009A607B689B6A584A934222D07B681B6875
:100AD0009A687B681B6822F070629A607B681B686A
:100AE00099687B689A6A7B681B680A439A607B688E
:100AF0001B689A687B681B6822F040529A607B688A
:100B00001B6899687B68DA6A7B681B680A439A608D
:100B10000FE07B681B689A687B681B6822F0706234
:100B20009A607B681B689A687B681B6822F0405259
:100B30009A607B681B689A687B681B6822F00202D7
:100B40009A607B681B6899687B681B7E5A007B688B
:100B50001B680A439A607B6893F82030002B1BD0F7
:100B60007B681B685A687B681B6842F400625A60A5
:100B70007B681B685A687B681B6822F460425A6075
:100B80007B681B6859687B685B6A013B5A037B681A
:100B90001B680A435A6007E07B681B685A687B68D9
:100BA0001B6822F400625A607B681B68DA6A7B6803
:100BB0001B6822F47002DA627B681B68D96A7B6862
:100BC000DB69013B1A057B681B680A43DA627B68B4
:100BD0001B689A687B681B6822F400729A607B68C5
:100BE0001B6899687B6893F830305A027B681B68F1
:100BF0000A439A607B681B689A687B681B6822F4CA
:100C000080629A607B681B6899687B685B699A025E
:100C10007B681B680A439A6000BF1437BD465DF8C5
:100C2000047B7047002301400100000F80B584B0B1
:100C300000AF78607B68002B01D10123EDE07B6879
:100C400093F82030DBB2002B02D1786810F016FD4B
:100C50007B681B681A687B681B6842F001021A6097
:100C6000FFF7B4FBF86012E0FFF7B0FB0246FB6849
:100C7000D31A0A2B0BD97B685B6A43F400327B687A
:100C80005A627B68052283F820200123C5E07B6837
:100C90001B685B6803F00103002BE5D07B681B68D1
:100CA0001A687B681B6822F002021A60FFF78EFB4D
:100CB000F86012E0FFF78AFB0246FB68D31A0A2BA2
:100CC0000BD97B685B6A43F400327B685A627B68AD
:100CD000052283F8202001239FE07B681B685B6866
:100CE00003F00203002BE5D17B681B7E012B08D1AA
:100CF0007B681B681A687B681B6842F080021A6078
:100D000007E07B681B681A687B681B6822F080021A
:100D10001A607B685B7E012B08D17B681B681A68B0
:100D20007B681B6842F040021A6007E07B681B6822
:100D30001A687B681B6822F040021A607B689B7E01
:100D4000012B08D17B681B681A687B681B6842F01E
:100D500020021A6007E07B681B681A687B681B68C2
:100D600022F020021A607B68DB7E012B08D17B68B1
:100D70001B681A687B681B6822F010021A6007E083
:100D80007B681B681A687B681B6842F010021A6057
:100D90007B681B7F012B08D17B681B681A687B6806
:100DA0001B6842F008021A6007E07B681B681A683B
:100DB0007B681B6822F008021A607B685B7F012B4E
:100DC00008D17B681B681A687B681B6842F00402C4
:100DD0001A6007E07B681B681A687B681B6822F052
:100DE00004021A607B689A687B68DB681A437B6838
:100DF0001B691A437B685B6942EA03017B685B6895
:100E00005A1E7B681B680A43DA617B6800225A62BB
:100E10007B68012283F82020002318461037BD4646
:100E200080BD000080B487B000AF786039607B6817
:100E300093F82030FB75FB7D012B03D0FB7D022B4B
:100E400040F0BE80654B3B613B69D3F8003243F014
:100E500001023B69C3F800223B69D3F8003223F456
:100E60007C523B69C3F800223B69D3F800223B68FF
:100E70005B6A1B021A433B69C3F800223B685B694B
:100E800003F01F03012202FA03F3FB603B69D3F86E
:100E90001C22FB68DB431A403B69C3F81C223B68F9
:100EA000DB69002B23D13B69D3F80C22FB68DB43C1
:100EB0001A403B69C3F80C223B68DB6819043B68A5
:100EC0005B689BB23A68526919433B69483243F800
:100ED00032103B689B6819043B681B689AB23B68F8
:100EE0005B690A4339694833DB000B445A603B684D
:100EF000DB69012B22D13B69D3F80C22FB681A4332
:100F00003B69C3F80C223B681B6819043B685B68AB
:100F10009BB23A68526919433B69483243F8321030
:100F20003B689B6819043B68DB689AB23B685B6965
:100F30000A4339694833DB000B445A603B689B69BC
:100F4000002B09D13B69D3F80422FB68DB431A402C
:100F50003B69C3F8042207E03B69D3F80422FB682D
:100F60001A433B69C3F804223B681B69002B09D173
:100F70003B69D3F81422FB68DB431A403B69C3F892
:100F8000142207E03B69D3F81422FB681A433B693B
:100F9000C3F814223B681B6A012B07D13B69D3F8C5
:100FA0001C22FB681A433B69C3F81C223B69D3F837
:100FB000003223F001023B69C3F80022002306E05F
:100FC0007B685B6A43F480227B685A62012318467F
:100FD0001C37BD465DF8047B704700BF00640040CD
:100FE00080B584B000AF78607B6893F82030DBB2C6
:100FF000012B2ED17B68022283F820207B681B689E
:101000001A687B681B6822F001021A60FFF7DEF99C
:10101000F86012E0FFF7DAF90246FB68D31A0A2BF0
:101020000BD97B685B6A43F400327B685A627B6849
:10103000052283F82020012312E07B681B685B688F
:1010400003F00103002BE5D17B6800225A620023E4
:1010500006E07B685B6A43F400227B685A620123E6
:1010600018461037BD4680BD80B584B000AF7860AB
:101070007B6893F82030DBB2022B33D17B681B688E
:101080001A687B681B6842F001021A60FFF79EF93C
:10109000F86012E0FFF79AF90246FB68D31A0A2BB0
:1010A0000BD97B685B6A43F400327B685A627B68C9
:1010B000052283F8202001231BE07B681B685B6806
:1010C00003F00103002BE5D07B681B681A687B687E
:1010D0001B6822F002021A607B68012283F820203C
:1010E000002306E07B685B6A43F480127B685A62E7
:1010F000012318461037BD4680BD80B489B000AFCB
:10110000F860B9607A603B60FB6893F82030FB7749
:10111000FB681B689B68BB61FB7F012B03D0FB7FD7
:10112000022B40F0AD80BB6903F08063002B0AD135
:10113000BB6903F00063002B05D1BB6903F080534A
:10114000002B00F09580BB691B0E03F003037B614D
:1011500001227B699A403B681A60BB689B68002B40
:101160000DD1BB681B685A05BB68DB68F968096864
:101170001A437B6918331B010B441A600FE0BB68EC
:101180005B68DA00BB689B681A43BB68DB68F96878
:1011900009681A437B6918331B010B441A60FB680A
:1011A0001968BB681A697B6918331B010B44043347
:1011B0001A60BB681B7D012B11D1FB681A687B6923
:1011C00018331B01134404331B68FA68116843F495
:1011D00080727B6918331B010B4404331A607B68EF
:1011E00007331B781A067B6806331B781B041A43E7
:1011F0007B6805331B781B0213437A68043212782C
:101200001046FA68116843EA00027B691B010B442F
:1012100003F5C6731A607B6803331B781A067B6874
:1012200002331B781B041A437B6801331B781B02B3
:1012300013437A6812781046FA68116843EA00028C
:101240007B691B010B4403F5C4731A60FB681A68C1
:101250007B6918331B0113441B68FA68116843F05B
:1012600001027B6918331B010B441A6000230EE056
:10127000FB685B6A43F40012FB685A62012306E0D4
:10128000FB685B6A43F48022FB685A6201231846BC
:101290002437BD465DF8047B704780B487B000AF4B
:1012A000F860B9607A603B60FB6893F82030FB75AA
:1012B000FB7D012B03D0FB7D022B40F00381BB683B
:1012C000002B0ED1FB681B68DB6803F00303002BC7
:1012D00016D1FB685B6A43F40012FB685A62012373
:1012E000F7E0FB681B681B6903F00303002B07D1C1
:1012F000FB685B6A43F40012FB685A620123E8E072
:10130000FB681A68BB681B331B0113441B6803F09E
:1013100004027B689A607B689B68002B0CD1FB6899
:101320001A68BB681B331B0113441B685B0DC3F3B6
:101330000A027B681A600BE0FB681A68BB681B3303
:101340001B0113441B68DB0823F060427B685A6072
:10135000FB681A68BB681B331B0113441B6803F04E
:1013600002027B68DA60FB681A68BB681B331B01EA
:10137000134404331B6803F00803002B03D07B687D
:1013800008221A610BE0FB681A68BB681B331B015B
:10139000134404331B6803F00F027B681A61FB6877
:1013A0001A68BB681B331B01134404331B681B0AF8
:1013B000DAB27B689A61FB681A68BB681B331B0151
:1013C000134404331B681B0C9AB27B685A61FB6898
:1013D0001A68BB681B01134403F5DC731B68DAB29F
:1013E0003B681A70FB681A68BB681B01134403F55D
:1013F000DC731B681A0A3B680133D2B21A70FB68AF
:101400001A68BB681B01134403F5DC731B681A0CD4
:101410003B680233D2B21A70FB681A68BB681B01C2
:10142000134403F5DC731B681A0E3B680333D2B216
:101430001A70FB681A68BB681B01134403F5DE735E
:101440001A683B680433D2B21A70FB681A68BB682A
:101450001B01134403F5DE731B681A0A3B6805334E
:10146000D2B21A70FB681A68BB681B01134403F5FB
:10147000DE731B681A0C3B680633D2B21A70FB6825
:101480001A68BB681B01134403F5DE731B681A0E50
:101490003B680733D2B21A70BB68002B08D1FB68D7
:1014A0001B68DA68FB681B6842F02002DA6007E01C
:1014B000FB681B681A69FB681B6842F020021A610E
:1014C000002306E0FB685B6A43F48022FB685A62F3
:1014D000012318461C37BD465DF8047B704780B475
:1014E00085B000AF786039600023FB607B6893F8BB
:1014F0002030FB72FB7A012B02D0FB7A022B0FD13A
:101500003B68002B06D17B681B68DB6803F0030394
:10151000FB6005E07B681B681B6903F00303FB604D
:10152000FB6818461437BD465DF8047B704780B4ED
:1015300085B000AF786039607B6893F82030FB732A
:10154000FB7B012B02D0FB7B022B09D17B681B6844
:1015500059697B681B683A680A435A61002306E0B0
:101560007B685B6A43F480227B685A6201231846D9
:101570001437BD465DF8047B704780B58AB000AF74
:10158000786000237B627B681B685B693B627B68D9
:101590001B685B68FB617B681B689B68BB617B6841
:1015A0001B68DB687B617B681B681B693B617B6830
:1015B0001B689B69FB603B6A03F00103002B7CD036
:1015C000BB6903F00103002B23D07B681B68012259
:1015D0009A60BB6903F00203002B03D0786800F027
:1015E00083F916E0BB6903F00403002B04D07B6A87
:1015F00043F400637B620CE0BB6903F00803002B3B
:1016000004D07B6A43F480537B6202E0786800F088
:1016100089F9BB6903F48073002B24D07B681B68B5
:101620004FF480729A60BB6903F40073002B03D0FF
:10163000786800F063F916E0BB6903F48063002B5F
:1016400004D07B6A43F400537B620CE0BB6903F473
:101650000063002B04D07B6A43F480437B6202E08A
:10166000786800F069F9BB6903F48033002B24D05B
:101670007B681B684FF480329A60BB6903F40033C7
:10168000002B03D0786800F043F916E0BB6903F43F
:101690008023002B04D07B6A43F400437B620CE080
:1016A000BB6903F40023002B04D07B6A43F480332E
:1016B0007B6202E0786800F049F93B6A03F00803B6
:1016C000002B0CD07B6903F01003002B07D07B6A42
:1016D00043F400737B627B681B681022DA603B6A0C
:1016E00003F00403002B0BD07B6903F00803002BED
:1016F00006D07B681B680822DA60786808F01DFB5A
:101700003B6A03F00203002B09D07B681B68DB688F
:1017100003F00303002B02D0786808F003FB3B6A58
:1017200003F04003002B0CD03B6903F01003002BA7
:1017300007D07B6A43F480637B627B681B6810225E
:101740001A613B6A03F02003002B0BD03B6903F0C6
:101750000803002B06D07B681B6808221A61786892
:1017600000F008F93B6A03F01003002B09D07B68F6
:101770001B681B6903F00303002B02D0786800F09C
:10178000EFF83B6A03F40033002B0BD0FB6903F046
:101790001003002B06D07B681B6810225A60786803
:1017A00000F0F2F83B6A03F48033002B0BD0FB69A6
:1017B00003F00803002B06D07B681B6808225A60E0
:1017C000786800F0EBF83B6A03F40043002B7BD011
:1017D000FB6903F00403002B72D03B6A03F48073AF
:1017E000002B08D0FB6803F00103002B03D07B6AB9
:1017F00043F001037B623B6A03F40073002B08D0C3
:10180000FB6803F00203002B03D07B6A43F0020362
:101810007B623B6A03F48063002B08D0FB6803F013
:101820000403002B03D07B6A43F004037B623B6A12
:1018300003F40063002B43D0FB6803F07003002B1C
:101840003ED0FB6803F07003602B2BD0602B2ED8AA
:10185000502B22D0502B2AD8402B19D0402B26D8E1
:10186000302B10D0302B22D8102B02D0202B05D0BB
:101870001DE07B6A43F008037B6219E07B6A43F05A
:1018800010037B6214E07B6A43F020037B620FE06D
:101890007B6A43F040037B620AE07B6A43F080038B
:1018A0007B6205E07B6A43F480737B6200E000BFEB
:1018B0007B681B689A697B681B6822F070029A61DA
:1018C0007B681B6804225A607B6A002B08D07B6807
:1018D0005A6A7B6A1A437B685A62786808F038FA59
:1018E00000BF2837BD4680BD80B483B000AF7860AC
:1018F00000BF0C37BD465DF8047B704780B483B0F1
:1019000000AF786000BF0C37BD465DF8047B7047C0
:1019100080B483B000AF786000BF0C37BD465DF87F
:10192000047B704780B483B000AF786000BF0C3791
:10193000BD465DF8047B704780B483B000AF78602B
:1019400000BF0C37BD465DF8047B704780B483B0A0
:1019500000AF786000BF0C37BD465DF8047B704770
:1019600080B483B000AF786000BF0C37BD465DF82F
:10197000047B704780B483B000AF786000BF0C3741
:10198000BD465DF8047B704780B483B000AF7860DB
:1019900000BF0C37BD465DF8047B704780B483B050
:1019A00000AF786000BF0C37BD465DF8047B704720
:1019B00080B483B000AF78607B685B6A18460C37F0
:1019C000BD465DF8047B704780B485B000AF786099
:1019D0007B6803F00703FB600C4BDB68BB60BA68F5
:1019E0004FF6FF031340BB60FB681A02BB6813434A
:1019F00043F0BF6343F40033BB60044ABB68D36069
:101A000000BF1437BD465DF8047B704700ED00E071
:101A100080B400AF044BDB681B0A03F007031846D1
:101A2000BD465DF8047B704700ED00E080B483B0F4
:101A300000AF0346FB7197F90730002B0BDBFB79F6
:101A400003F01F02074997F907305B09012000FAEC
:101A500002F241F8232000BF0C37BD465DF8047B3D
:101A6000704700BF00E100E080B483B000AF0346E0
:101A70003960FB7197F90730002B0ADB3B68DAB25B
:101A80000C4997F907301201D2B20B4483F80023B6
:101A90000AE03B68DAB20849FB7903F00F03043B24
:101AA0001201D2B20B441A7600BF0C37BD465DF866
:101AB000047B704700E100E000ED00E080B489B0F5
:101AC00000AFF860B9607A60FB6803F00703FB6160
:101AD000FB69C3F10703042B28BF0423BB61FB6927
:101AE0000433062B02D9FB69033B00E000237B6132
:101AF0004FF0FF32BB6902FA03F3DA43BB681A40C6
:101B00007B699A404FF0FF317B6901FA03F3D943B7
:101B10007B680B40134318462437BD465DF8047BB1
:101B20007047000080B582B000AF78607B68013BF1
:101B3000B3F1807F01D301230FE00A4A7B68013BA8
:101B400053600F214FF0FF30FFF78EFF054B00224F
:101B50009A60044B07221A60002318460837BD46D6
:101B600080BD00BF10E000E080B582B000AF7860BB
:101B70007868FFF729FF00BF0837BD4680BD80B5F4
:101B800086B000AF0346B9607A60FB7300237B61C7
:101B9000FFF73EFF78617A68B9687869FFF78EFFD2
:101BA000024697F90F3011461846FFF75DFF00BF58
:101BB0001837BD4680BD80B582B000AF0346FB71CB
:101BC00097F907301846FFF731FF00BF0837BD46C9
:101BD00080BD80B582B000AF78607868FFF7A2FF63
:101BE000034618460837BD4680BD80B584B000AFB7
:101BF00078607B689B6DFB60FEF7E8FBB8607B68F4
:101C000093F83530DBB2022B08D07B6880225A650E
:101C10007B68002283F83420012352E07B681B6834
:101C20001A687B681B6822F016021A607B681B68C2
:101C30005A697B681B6822F080025A617B681B6CC2
:101C4000002B03D17B689B6C002B07D07B681B6843
:101C50001A687B681B6822F008021A607B681B68A0
:101C60001A687B681B6822F001021A6013E0FEF715
:101C7000ADFB0246BB68D31A052B0CD97B6820222A
:101C80005A657B68032283F835207B68002283F83D
:101C90003420032315E07B681B681B6803F00103F5
:101CA000002BE4D17B68DB6D3F229A40FB689A6091
:101CB0007B68012283F835207B68002283F834207A
:101CC000002318461037BD4680BD80B483B000AFF6
:101CD00078607B6893F83530DBB2022B04D07B68E8
:101CE00080225A6501230CE07B68052283F83520A9
:101CF0007B681B681A687B681B6822F001021A6007
:101D0000002318460C37BD465DF8047B7047000081
:101D100080B586B000AFF860B960C7E90023234BF7
:101D20001B7E012B01D102233BE0204B01221A76BE
:101D30004CF2503000F070F80346FB75FB7D002B31
:101D40002BD1FB68002B05D13B781946B86800F011
:101D50001BF916E0FB68012B05D13B881946B868D2
:101D600000F0EEF80DE0FB68022B05D13B68194648
:101D7000B86800F0C3F804E0D7E90023B86800F0C1
:101D80008BF84CF2503000F047F80346FB75084BD7
:101D90001B69074A23F001031361044B00221A76E2
:101DA000FB7D18461837BD4680BD00BF08000020E7
:101DB000003C024080B483B000AF0023FB710B4BAA
:101DC0001B69002B0BDA094B094A5A60074B094A79
:101DD0005A60064B1B69002B01DA0123FB71FB796A
:101DE00018460C37BD465DF8047B7047003C024046
:101DF00023016745AB89EFCD80B400AF054B1B696C
:101E0000044A43F00043136100231846BD465DF8C1
:101E1000047B7047003C024080B584B000AF78601E
:101E20000023FB601A4B0022DA61FEF7CFFAF8605C
:101E300010E07B68B3F1FF3F0CD07B68002B07D02C
:101E4000FEF7C4FA0246FB68D31A7A689A4201D2B6
:101E5000032319E00F4BDB6803F48033002BE8D138
:101E60000C4BDB6803F00103002B02D0094B01226D
:101E7000DA60084BDB6803F0F203002B03D000F0BC
:101E8000A5F8012300E0002318461037BD4680BDA9
:101E900008000020003C024080B485B000AFF8602C
:101EA000C7E90023144B1B69134A23F440731361E1
:101EB000114B1B69104A43F4407313610E4B1B69AD
:101EC0000D4A43F001031361FB683A681A60BFF3DF
:101ED0006F8F00BFD7E900014FF000024FF0000301
:101EE0000A000023F968043113460B6000BF143761
:101EF000BD465DF8047B7047003C024080B483B06F
:101F000000AF786039600D4B1B690C4A23F44073B5
:101F100013610A4B1B69094A43F400731361074BB1
:101F20001B69064A43F0010313617B683A681A6033
:101F300000BF0C37BD465DF8047B7047003C024093
:101F400080B483B000AF78600B467B800D4B1B697B
:101F50000C4A23F4407313610A4B1B69094A43F48A
:101F600080731361074B1B69064A43F00103136139
:101F70007B687A881A8000BF0C37BD465DF8047B09
:101F8000704700BF003C024080B483B000AF78606F
:101F90000B46FB700C4B1B690B4A23F44073136117
:101FA000094B094A1B691361074B1B69064A43F039
:101FB000010313617B68FA781A7000BF0C37BD46C5
:101FC0005DF8047B704700BF003C024080B400AF66
:101FD000274BDB6803F01003002B08D0254BDB698F
:101FE00043F01003234AD361214B1022DA60204BC7
:101FF000DB6803F02003002B08D01E4BDB6943F0A5
:1020000008031C4AD3611A4B2022DA60184BDB68A4
:1020100003F04003002B08D0164BDB6943F00403A8
:10202000144AD361124B4022DA60114BDB6803F093
:102030008003002B08D00F4BDB6943F002030D4AED
:10204000D3610B4B8022DA60094BDB6803F002039B
:10205000002B08D0074BDB6943F02003054AD3610E
:10206000034B0222DA6000BFBD465DF8047B704777
:10207000003C02400800002080B584B000AF7860CA
:1020800039600023BB60314B1B7E012B01D1022341
:1020900058E02E4B01221A764CF25030FFF7BCFE6E
:1020A0000346FB73FB7B002B48D13B684FF0FF32AC
:1020B0001A607B681B68012B15D17B681B69DAB23B
:1020C0007B685B681946104600F044F84CF25030CB
:1020D000FFF7A2FE0346FB731D4B1B691C4A23F04E
:1020E0000403136128E07B689B68BB601CE07B688D
:1020F0001B69DBB21946B86800F050F84CF250305A
:10210000FFF78AFE0346FB73114B1B69104A23F04D
:102110007A031361FB7B002B03D03B68BA681A601B
:102120000AE0BB680133BB607B68DA687B689B6848
:102130001344BA689A42DAD300F078F8034B0022CD
:102140001A76FB7B18461037BD4680BD080000207C
:10215000003C024080B483B000AF03463960FB719D
:102160000D4B1B690C4A23F4407313610A4B1B6926
:10217000094A43F004031361074B1A69FB791B02F8
:102180001343054A43F48033136100BF0C37BD4647
:102190005DF8047B704700BF003C024080B485B00E
:1021A00000AF78600B46FB700023FB60FB78002BD0
:1021B00002D10023FB6010E0FB78012B03D14FF428
:1021C0008073FB6009E0FB78022B03D14FF40073AE
:1021D000FB6002E04FF44073FB60134B1B69124A33
:1021E00023F440731361104B1A690F49FB681343C2
:1021F0000B610D4B1B690C4A23F0780313610A4BEA
:102200001A697B68DB001343074A43F0020313613A
:10221000054B1B69044A43F48033136100BF143734
:10222000BD465DF8047B7047003C024080B400AFBF
:10223000204B1B6803F40073002B17D01D4B1B6849
:102240001C4A23F4007313601A4B1B68194A43F4A9
:1022500000631360174B1B68164A23F40063136076
:10226000144B1B68134A43F400731360114B1B6833
:1022700003F48063002B17D00E4B1B680D4A23F428
:10228000806313600B4B1B680A4A43F4805313604E
:10229000084B1B68074A23F480531360054B1B68E7
:1022A000044A43F48063136000BFBD465DF8047BBD
:1022B000704700BF003C024080B489B000AF786036
:1022C000396000237B6100233B610023BB61002355
:1022D000FB616BE10122FB6902FA03F37B613B685E
:1022E0001B687A6913403B613A697B699A4240F006
:1022F0005A813B685B6803F00303012B05D03B6800
:102300005B6803F00303022B30D17B689B68BB61E1
:10231000FB695B00032202FA03F3DB43BA69134053
:10232000BB613B68DA68FB695B0002FA03F3BA69D8
:102330001343BB617B68BA699A607B685B68BB6169
:102340000122FB6902FA03F3DB43BA691340BB6164
:102350003B685B681B0903F00102FB6902FA03F3A7
:10236000BA691343BB617B68BA695A603B685B68B2
:1023700003F00303032B17D07B68DB68BB61FB69A9
:102380005B00032202FA03F3DB43BA691340BB612B
:102390003B689A68FB695B0002FA03F3BA6913436E
:1023A000BB617B68BA69DA603B685B6803F0030372
:1023B000022B23D1FB69DA087B68083253F82230FC
:1023C000BB61FB6903F007039B000F2202FA03F3D2
:1023D000DB43BA691340BB613B681A69FB6903F0D0
:1023E00007039B0002FA03F3BA691343BB61FB695D
:1023F000DA087B680832B96943F822107B681B68E9
:10240000BB61FB695B00032202FA03F3DB43BA6999
:102410001340BB613B685B6803F00302FB695B0030
:1024200002FA03F3BA691343BB617B68BA691A60A5
:102430003B685B6803F44033002B00F0B48000235A
:10244000FB60604B5B6C5F4A43F4804353645D4BBD
:102450005B6C03F48043FB60FB685B4AFB699B0891
:10246000023352F82330BB61FB6903F003039B0086
:102470000F2202FA03F3DB43BA691340BB617B68A6
:10248000524A93422BD07B68514A934225D07B68B5
:10249000504A93421FD07B684F4A934219D07B68C1
:1024A0004E4A934213D07B684D4A93420DD07B68CD
:1024B0004C4A934207D07B684B4A934201D1072391
:1024C0000EE008230CE006230AE0052308E00423BD
:1024D00006E0032304E0022302E0012300E00023DE
:1024E000FA6902F0030292009340BA691343BB6198
:1024F0003549FB699B080233BA6941F823203B4BFD
:102500009B68BB613B69DB43BA691340BB613B68B5
:102510005B6803F48013002B03D0BA693B69134353
:10252000BB61324ABB699360304BDB68BB613B697E
:10253000DB43BA691340BB613B685B6803F400137B
:10254000002B03D0BA693B691343BB61274ABB69BF
:10255000D360264B5B68BB613B69DB43BA691340C0
:10256000BB613B685B6803F40033002B03D0BA699E
:102570003B691343BB611D4ABB6953601B4B1B681E
:10258000BB613B69DB43BA691340BB613B685B6875
:1025900003F48033002B03D0BA693B691343BB615A
:1025A000124ABB691360FB690133FB61FB690F2BA6
:1025B0007FF690AE00BF00BF2437BD465DF8047BB8
:1025C000704700BF00380240003801400000024060
:1025D0000004024000080240000C024000100240CB
:1025E0000014024000180240001C0240003C014060
:1025F00080B485B000AF78600B467B807B681A6939
:102600007B881340002B02D00123FB7301E00023E1
:10261000FB73FB7B18461437BD465DF8047B70479F
:1026200080B586B002AF78607B68002B01D10123B2
:1026300001E17B681B68BB607B6893F89534DBB273
:10264000002B06D17B68002283F8942478680FF071
:10265000D7FB7B68032283F89524BB68B3F1A04FB6
:1026600002D17B6800229A717B681B68184603F0D0
:102670000EF97B6818687B681A7C8DF8002004339B
:102680000ECB02F0EDFF0346002B05D07B68022243
:1026900083F895240123CEE07B681B68002118464F
:1026A00003F006F90346002B05D07B68022283F86D
:1026B00095240123BFE00023FB734AE0FA7B79688D
:1026C0001346DB0013449B000B44153301221A70A0
:1026D000FA7B79681346DB0013449B000B441433E8
:1026E000FA7B1A70FA7BFB7B98B279681346DB00A1
:1026F00013449B000B442E3302461A80FA7B796800
:102700001346DB0013449B000B44183300221A705D
:10271000FA7B79681346DB0013449B000B441C339F
:1027200000221A60FA7B79681346DB0013449B0091
:102730000B44203300221A60FA7B79681346DB00D1
:1027400013449B000B44243300221A60FB7B0133AB
:10275000FB737B681B79FA7B9A42AFD30023FB7330
:1027600044E0FA7B79681346DB0013449B000B447A
:1027700003F2552300221A70FA7B79681346DB00B6
:1027800013449B000B4403F51573FA7B1A70FA7B14
:1027900079681346DB0013449B000B4403F5167362
:1027A00000221A70FA7B79681346DB0013449B0001
:1027B0000B4403F5177300221A60FA7B79681346FD
:1027C000DB0013449B000B4403F5187300221A60CE
:1027D000FA7B79681346DB0013449B000B4403F536
:1027E000197300221A60FB7B0133FB737B681B7932
:1027F000FA7B9A42B5D37B6818687B681A7C8DF89F
:10280000002004330ECB03F09FF80346002B05D0C5
:102810007B68022283F8952401230CE07B68002268
:102820005A747B68012283F895247B681B681846DC
:1028300004F0E9F8002318461037BD4680BD80B586
:1028400084B000AF78607B681B68FB607B6893F89E
:102850009434012B01D1022322E07B68012283F80A
:102860009424FB68DB6803F04003002B09D07B68ED
:102870005B7B012B05D1FB689B6B43F48032FB68CB
:102880009A637B681B68184602F0F0FF7B681B6840
:10289000184604F097F87B68002283F894240023FC
:1028A00018461037BD4680BD90B58DB000AF78603A
:1028B0007B681B683B623B6AFB617B681B68184650
:1028C00004F055F90346002B40F08C847B681B68AC
:1028D000184604F0B9F80346002B00F08284FB6927
:1028E00003F500639B681B0AC3F30D027B68C3F802
:1028F000D4247B681B68184604F0A6F8034603F04E
:102900000203022B07D17B681B685A697B681B682E
:1029100002F002025A617B681B68184604F094F8C2
:10292000034603F01003102B61D17B681B689A6982
:102930007B681B6822F010029A613B6A1B6ABB61CC
:10294000BB6903F00F021346DB0013449B0003F541
:1029500014737A68134404337B61BB6903F4F01386
:10296000B3F5802F24D1BA6947F6F0731340002BDA
:1029700035D07B69D968BB691B099BB2C3F30A03D5
:102980009BB21A46386A03F0CBFE7B69DA68BB69F2
:102990001B09C3F30A031A447B69DA607B695A692D
:1029A000BB691B09C3F30A031A447B695A6116E029
:1029B000BB6903F4F013B3F5402F10D17B6803F229
:1029C0009C4308221946386A03F0AAFE7B695A69BB
:1029D000BB691B09C3F30A031A447B695A617B680C
:1029E0001B689A697B681B6842F010029A617B68D9
:1029F0001B68184604F028F8034603F40023B3F5D7
:102A0000002F40F0A78000237B627B681B6818467C
:102A100004F02DF8B86299E0BB6A03F00103002BC3
:102A200000F08E807B681B687A6AD2B21146184625
:102A300004F051F838613B6903F00103002B0CD01E
:102A40007B6A5A01FB69134403F530631A4601237C
:102A50009360796A786800F0A3FE3B6903F008038D
:102A6000002B0CD07B6A5A01FB69134403F53063D9
:102A70001A4608239360796A786800F079FF3B6909
:102A800003F01003002B08D07B6A5A01FB69134442
:102A900003F530631A46102393603B6903F0020389
:102AA000002B30D03B6A5B6903F08003802B09D197
:102AB000FB6903F500635B68FA6902F5006243F4A1
:102AC000806353607A6A1346DB0013449B0003F56E
:102AD00014737A68134404337B617B69DB78012BC0
:102AE00008D17B690022DA707B6ADBB2194678680C
:102AF0000FF08CFA7B6A5A01FB69134403F53063CB
:102B00001A46022393603B6903F02003002B08D090
:102B10007B6A5A01FB69134403F530631A4620238C
:102B200093603B6903F40053002B09D07B6A5A0180
:102B3000FB69134403F530631A464FF40053936066
:102B40007B6A01337B62BB6A5B08BB62BB6A002B9A
:102B50007FF462AF7B681B68184603F075FF03467D
:102B600003F48023B3F5802F40F0DB807B681B6883
:102B7000184603F096FFB86200237B62CDE0BB6A83
:102B800003F00103002B00F0C2807B681B687A6AA7
:102B9000D2B21146184603F0BCFF38613B6903F01E
:102BA0000103002B57D07B6A03F00F03012202FAC6
:102BB00003F3FB60FB6903F500635A6BFB68DB43BF
:102BC000F96901F5006113404B637B6A5A01FB69A7
:102BD000134403F510631A46012393607B689B79C5
:102BE000012B32D179687A6A1346DB0013449B00CB
:102BF0000B442033196878687A6A1346DB00134463
:102C00009B0003441C331B68194478687A6A134696
:102C1000DB0013449B000344203319607B6A002BC4
:102C200013D179687A6A1346DB0013449B000B4486
:102C300024331B68002B08D17B6818687B6803F27B
:102C40009C431A46012103F0C3FF7B6ADBB219469D
:102C500078680FF056F93B6903F00803002B08D0A1
:102C60007B6A5A01FB69134403F510631A46082373
:102C700093603B6903F01003002B08D07B6A5A0174
:102C8000FB69134403F510631A46102393603B69F4
:102C900003F04003002B08D07B6A5A01FB69134400
:102CA00003F510631A46402393603B6903F0020367
:102CB000002B23D0796A386A02F0AAFF7A6A134699
:102CC000DB0013449B0010337A68134404337B61A8
:102CD0007B69DB78012B08D17B690022DA707B6A83
:102CE000DBB2194678680FF0A3F97B6A5A01FB69D9
:102CF000134403F510631A46022393603B6903F003
:102D00008003002B03D0796A786800F0BDFC7B6AF1
:102D100001337B62BB6A5B08BB62BB6A002B7FF43A
:102D20002EAF7B681B68184603F08EFE034603F047
:102D30000043B3F1004F22D1FB6903F500635B68E8
:102D4000FA6902F5006223F0010353607B6893F88F
:102D5000CC34012B08D17B68002283F8CC240021DD
:102D6000786800F0A3FE02E078680FF041F97B6814
:102D70001B685A697B681B6802F000425A617B68D5
:102D80001B68184603F060FE034603F40063B3F5C6
:102D9000006F12D1FB6903F500639B6803F0010328
:102DA000012B02D178680FF0FDF87B681B685A6927
:102DB0007B681B6802F400625A617B681B681846D6
:102DC00003F042FE034603F48053B3F5805F40F006
:102DD000B780FB6903F500635B68FA6902F500627E
:102DE00023F0010353607B681B681021184602F032
:102DF0000FFF0023FB6246E0FB6A5A01FB691344A4
:102E000003F510631A464FF67F339360FB6A5A014D
:102E1000FB69134403F510631B68FA6A5101FA69F0
:102E20000A4402F5106223F400131360FB6A5A018E
:102E3000FB69134403F530631A464FF67F33936002
:102E4000FB6A5A01FB69134403F530631B68FA6A95
:102E50005101FA690A4402F5306223F40013136049
:102E6000FB6A5A01FB69134403F530631B68FA6A75
:102E70005101FA690A4402F5306243F000631360BD
:102E8000FB6A0133FB627B681B791A46FB6A93423B
:102E9000B2D3FB6903F50063DB69FA6902F50062EE
:102EA00043F00113D3617B68DB7B002B16D0FB69F9
:102EB00003F50063D3F88430FA6902F5006243F049
:102EC0000B03C2F88430FB6903F500635B6CFA699D
:102ED00002F5006243F00B03536415E0FB6903F550
:102EE00000635B69FA6902F5006243F4005343F042
:102EF0002B035361FB6903F500631B69FA6902F553
:102F0000006243F00B031361FB6903F500631B6868
:102F1000FA6902F5006223F4FE6313607B681868A7
:102F20007B6899797B6803F29C431A4603F050FE54
:102F30007B681B685A697B681B6802F480525A617F
:102F40007B681B68184603F07FFD034603F40053BB
:102F5000B3F5005F23D17B681B68184603F015FEAC
:102F60007B681B68184602F0CCFE03461A467B6855
:102F7000DA717B681C6801F009FA01467B68DB792D
:102F80001A46204602F0D0FB78680EF0E2FF7B681C
:102F90001B685A697B681B6802F400525A617B689F
:102FA0001B68184603F050FD034603F00803082B86
:102FB0000AD178680EF0BFFF7B681B685A697B688E
:102FC0001B6802F008025A617B681B68184603F010
:102FD0003BFD034603F08003802B23D13B6A9B69B2
:102FE00023F080023B6A9A6101237B6214E07968D6
:102FF0007A6A1346DB0013449B000B4403F2572309
:103000001B78012B05D17B6ADBB21946786800F08A
:103010000AFB7B6A01337B627B681B791A467B6AF9
:103020009342E4D37B681B68184603F00DFD03460A
:1030300003F48013B3F5801F3CD101237B622BE0A6
:103040007B6A5A01FB69134403F510631B68BB617B
:1030500079687A6A1346DB0013449B000B441833EB
:103060001B78012B15D1BB69002B12DA79687A6ABB
:103070001346DB0013449B000B44173301221A70E4
:103080007B6ADBB263F07F03DBB21946786800F03D
:10309000CAFA7B6A01337B627B681B791A467B6ABA
:1030A0009342CDD37B681B685A697B681B6802F426
:1030B00080125A617B681B68184603F0C5FC034602
:1030C00003F40013B3F5001F56D101237B6245E0E2
:1030D0007B6A5A01FB69134403F530631B68BB61CB
:1030E00079687A6A1346DB0013449B000B4403F5AE
:1030F00016731B78012B2ED1BB69002B2BDABB6911
:103100001A0C7B68D3F8D434534003F00103002B2E
:1031100021D179687A6A1346DB0013449B000B4483
:1031200003F2572301221A703B6A9B6943F0800225
:103130003B6A9A613B6A5B6903F08003002B0AD10A
:10314000FB6903F500635B68FA6902F5006243F40A
:103150000073536008E07B6A01337B627B681B79F4
:103160001A467B6A9342B3D37B681B685A697B68B3
:103170001B6802F400125A617B681B68184603F052
:1031800063FC034603F08043B3F1804F0AD17868B3
:103190000EF060FF7B681B685A697B681B6802F051
:1031A00080425A617B681B68184603F04DFC034659
:1031B00003F00403042B15D17B681B685B68BB61BB
:1031C000BB6903F00403002B02D078680EF050FFB7
:1031D0007B681B6859687B681B68BA690A435A6038
:1031E00000E000BF3437BD4690BD80B582B000AF6F
:1031F00078600B46FB707B6893F89434012B01D107
:10320000022312E07B68012283F894247B68FA7819
:103210005A747B681B68FA781146184603F0ACFBB9
:103220007B68002283F89424002318460837BD46A3
:1032300080BD80B584B000AF7860084611461A465C
:103240000346FB700B463B801346BB700023FB72AA
:1032500097F90330002B0FDAFB7803F00F021346C7
:10326000DB0013449B0010337A6813440433FB6083
:10327000FB6801225A700FE0FB7803F00F0213463F
:10328000DB0013449B0003F514737A681344043382
:10329000FB60FB6800225A70FB7803F00F03DAB280
:1032A000FB681A703B88C3F30A02FB689A60FB68EC
:1032B000BA781A71FB685B78002B04D0FB681B7826
:1032C0001A46FB685A83BB78022B02D1FB680022A6
:1032D0005A717B6893F89434012B01D102230EE0DC
:1032E0007B68012283F894247B681B68F968184680
:1032F00002F02CFD7B68002283F89424FB7A1846A8
:103300001037BD4680BD80B584B000AF78600B46F5
:10331000FB7097F90330002B0FDAFB7803F00F02F4
:103320001346DB0013449B0010337A6813440433C4
:10333000FB60FB6801225A700FE0FB7803F00F027C
:103340001346DB0013449B0003F514737A6813449F
:103350000433FB60FB6800225A70FB7803F00F0314
:10336000DAB2FB681A707B6893F89434012B01D1B0
:1033700002230EE07B68012283F894247B681B689B
:10338000F968184602F06AFD7B68002283F89424ED
:10339000002318461037BD4680BD80B586B000AF0B
:1033A000F8607A603B600B46FB72FB7A03F00F0219
:1033B0001346DB0013449B0003F51473FA681344AF
:1033C00004337B617B697A68DA607B693A681A61E9
:1033D0007B6900225A617B6900225A70FB7A03F0F4
:1033E0000F03DAB27B691A70FB689B79012B02D15B
:1033F0007A687B69DA61FB681868FB689B791A4612
:10340000796902F007FE002318461837BD4680BDD3
:1034100080B483B000AF78600B46FB70FB7803F09C
:103420000F0279681346DB0013449B000B4403F53D
:103430001A731B6818460C37BD465DF8047B70474D
:1034400080B586B000AFF8607A603B600B46FB72D7
:10345000FB7A03F00F021346DB0013449B0010338A
:10346000FA68134404337B617B697A68DA607B69AC
:103470003A681A617B6900225A617B6901225A709D
:10348000FB7A03F00F03DAB27B691A70FB689B7951
:10349000012B02D17A687B69DA61FB681868FB68E6
:1034A0009B791A46796902F0B5FD00231846183752
:1034B000BD4680BD80B584B000AF78600B46FB7020
:1034C000FB7803F00F037A681279934201D9012344
:1034D0004FE097F90330002B0FDAFB7803F00F026F
:1034E0001346DB0013449B0010337A681344043303
:1034F000FB60FB6801225A700DE0FA781346DB008E
:1035000013449B0003F514737A6813440433FB607F
:10351000FB6800225A70FB6801229A70FB7803F066
:103520000F03DAB2FB681A707B6893F89434012BAE
:1035300001D102231DE07B68012283F894247B687B
:103540001B68F968184603F043F9FB7803F00F0392
:10355000002B09D17B6818687B6899797B6803F236
:103560009C431A4603F034FB7B68002283F89424C2
:10357000002318461037BD4680BD80B584B000AF2B
:1035800078600B46FB70FB7803F00F037A681279C2
:10359000934201D9012342E097F90330002B0FDA5F
:1035A000FB7803F00F021346DB0013449B0010333B
:1035B0007A6813440433FB60FB6801225A700FE001
:1035C000FB7803F00F021346DB0013449B0003F566
:1035D00014737A6813440433FB60FB6800225A704A
:1035E000FB6800229A70FB7803F00F03DAB2FB68E5
:1035F0001A707B6893F89434012B01D102230EE0FA
:103600007B68012283F894247B681B68F96818465C
:1036100003F04CF97B68002283F8942400231846B9
:103620001037BD4680BD80B584B000AF78600B46D2
:10363000FB7097F90330002B0CDAFB7803F00F02D4
:103640001346DB0013449B0010337A6813440433A1
:10365000FB600CE0FB7803F00F021346DB00134421
:103660009B0003F514737A6813440433FB607B6892
:103670001B68F968184602F06BFF0346FB72FB7A81
:1036800018461037BD4680BD80B58AB002AF78605D
:1036900039607B681B687B617B693B613A681346D4
:1036A000DB0013449B0010337A6813440433FB603F
:1036B000FB685A69FB681B699A4201D901236BE0D8
:1036C000FB681A69FB685B69D31AFB61FB689B683E
:1036D000FA699A4202D9FB689B68FB61FB69033374
:1036E0009B08BB612AE0FB681A69FB685B69D31A17
:1036F000FB61FB689B68FA699A4202D9FB689B6888
:10370000FB61FB6903339B08BB61FB68D9683B68BD
:10371000DAB2FB6998B27B689B79009303467869BB
:1037200002F0C0FFFB68DA68FB691A44FB68DA60E4
:10373000FB685A69FB691A44FB685A613B685A0185
:103740003B69134403F510639B699BB2BA699A42C3
:1037500009D8FB685A69FB681B699A4203D2FB6867
:103760001B69002BBFD1FB681A69FB685B699A4231
:1037700011D83B6803F00F03012202FA03F3BB6088
:103780003B6903F500635A6BBB68DB43396901F59C
:10379000006113404B63002318462037BD4680BDAF
:1037A00080B588B000AF786039607B681B68FB61CA
:1037B000FB69BB61FB693C3304331B687B613B687D
:1037C0005A01BB69134403F530639B683B617B6816
:1037D0009B79012B7BD13B6903F00803002B15D0AB
:1037E0007B69614A934240F2B9803B6903F400432C
:1037F000002B00F0B3803B685A01BB69134403F50A
:1038000030631A464FF400439360A7E03B6903F02E
:103810002003002B09D03B685A01BB69134403F510
:1038200030631A462023936098E03B6903F0280335
:10383000002B40F093807B694B4A93420FD93B6940
:1038400003F40043002B0AD03B685A01BB691344C0
:1038500003F530631A464FF4004393607EE03A6804
:103860001346DB0013449B0003F514737A6813447A
:103870000433FB60FB681A6A3B685901BB690B445F
:1038800003F530631B69C3F31203D21AFB685A6154
:103890003B68002B14D1FB681B69002B09D17B68A6
:1038A00018687B6803F29C431A46012103F090F9E3
:1038B00006E0FB68DA68FB685B691A44FB68DA605B
:1038C0003B68DBB2194678680EF000FB46E07B6986
:1038D000264A934224D13B6903F40043002B0AD0CB
:1038E0003B685A01BB69134403F530631A464FF431
:1038F0000043936032E03B6903F02003002B08D0C3
:103900003B685A01BB69134403F530631A46202310
:1039100093603B68DBB2194678680EF0D7FA1DE079
:103920003B68002B14D179683A681346DB001344D6
:103930009B000B4403F519731B68002B08D17B68AF
:1039400018687B6803F29C431A46002103F040F993
:103950003B68DBB2194678680EF0B8FA00231846C7
:103960002037BD4680BD00BF0A30544F0A31544F46
:1039700080B586B000AF786039607B681B687B617A
:103980007B693B617B693C3304331B68FB603B68AC
:103990005A013B69134403F530639B68BB60FB68C5
:1039A000154A93420ED9BB6803F40043002B09D09B
:1039B0003B685A013B69134403F530631A464FF4E0
:1039C0000043936078680EF06FFAFB680A4A9342EE
:1039D0000CD97B689B79012B08D17B6818687B68C0
:1039E00003F29C431A46012103F0F2F80023184623
:1039F0001837BD4680BD00BF0A30544F80B485B033
:103A000000AF78600B46FB7013463B807B681B68F9
:103A10005B6ABB60FB78002B07D13B8819047B688D
:103A20001B68BA680A439A6228E07B681B689B6A35
:103A30001B0CBA681344BB600023FB730DE07B686A
:103A40001A68FB7B40339B0013445B681B0CBA680D
:103A50001344BB60FB7B0133FB73FA7BFB78013BB8
:103A60009A42ECD33B8818047B681968FB78013BC9
:103A7000BA68024340339B000B445A600023184647
:103A80001437BD465DF8047B704780B483B000AF47
:103A900078600B467B807B681B687A885A620023BB
:103AA00018460C37BD465DF8047B704780B483B080
:103AB00000AF78600B46FB7000BF0C37BD465DF869
:103AC000047B704780B586B000AF78607B68002BC0
:103AD00001D1012367E27B681B6803F00103002B1F
:103AE00075D0884B9B6803F00C03042B0CD0854BDE
:103AF0009B6803F00C03082B12D1824B5B6803F424
:103B00008003B3F5800F0BD17E4B1B6803F40033A9
:103B1000002B5BD07B685B68002B57D1012342E20E
:103B20007B685B68B3F5803F06D1764B1B68754AAE
:103B300043F4803313601DE07B685B68B3F5A02F0E
:103B40000CD1704B1B686F4A43F4802313606D4B9C
:103B50001B686C4A43F4803313600BE0694B1B68AD
:103B6000684A23F480331360664B1B68654A23F46C
:103B7000802313607B685B68002B13D0FCF726FC66
:103B8000386108E0FCF722FC02463B69D31A642B3B
:103B900001D9032307E25B4B1B6803F40033002BBE
:103BA000F0D014E0FCF712FC386108E0FCF70EFCE2
:103BB00002463B69D31A642B01D90323F3E1514B2D
:103BC0001B6803F40033002BF0D100E000BF7B68DA
:103BD0001B6803F00203002B63D04A4B9B6803F081
:103BE0000C03002B0BD0474B9B6803F00C03082BF6
:103BF0001CD1444B5B6803F48003002B16D1414B6E
:103C00001B6803F00203002B05D07B68DB68012BE7
:103C100001D00123C7E13B4B1B6823F0F8027B680E
:103C20001B69DB00374913430B603AE07B68DB68B4
:103C3000002B20D0344B01221A60FCF7C7FB3861FF
:103C400008E0FCF7C3FB02463B69D31A022B01D9FB
:103C50000323A8E12B4B1B6803F00203002BF0D0D9
:103C6000284B1B6823F0F8027B681B69DB002549A1
:103C700013430B6015E0244B00221A60FCF7A6FBEF
:103C8000386108E0FCF7A2FB02463B69D31A022B1D
:103C900001D9032387E11B4B1B6803F00203002BB0
:103CA000F0D17B681B6803F00803002B36D07B68DB
:103CB0005B69002B16D0154B01221A60FCF786FBBE
:103CC000386108E0FCF782FB02463B69D31A022BFD
:103CD00001D9032367E10B4B5B6F03F00203002B59
:103CE000F0D01BE0094B00221A60FCF76FFB386133
:103CF0000EE0FCF76BFB02463B69D31A022B07D997
:103D0000032350E10038024000004742800E474242
:103D1000884B5B6F03F00203002BEAD17B681B68C2
:103D200003F00403002B00F097800023FB75814B08
:103D30001B6C03F08053002B0FD10023BB607D4B25
:103D40001B6C7C4A43F0805313647A4B1B6C03F06A
:103D50008053BB60BB680123FB75774B1B6803F482
:103D60008073002B18D1744B1B68734A43F4807323
:103D70001360FCF72BFB386108E0FCF727FB0246D9
:103D80003B69D31A022B01D903230CE16A4B1B6850
:103D900003F48073002BF0D07B689B68012B06D165
:103DA000644B1B6F634A43F0010313671CE07B689D
:103DB0009B68052B0CD15F4B1B6F5E4A43F00403DD
:103DC00013675C4B1B6F5B4A43F0010313670BE007
:103DD000584B1B6F574A23F001031367554B1B6F5A
:103DE000544A23F0040313677B689B68002B15D0AB
:103DF000FCF7ECFA38610AE0FCF7E8FA02463B69A6
:103E0000D31A41F28832934201D90323CBE0494BC4
:103E10001B6F03F00203002BEED014E0FCF7D6FA80
:103E200038610AE0FCF7D2FA02463B69D31A41F244
:103E30008832934201D90323B5E03E4B1B6F03F058
:103E40000203002BEED1FB7D012B05D1394B1B6CFE
:103E5000384A23F0805313647B689B69002B00F081
:103E6000A180344B9B6803F00C03082B5CD07B686B
:103E70009B69022B41D1314B00221A60FCF7A6FA54
:103E8000386108E0FCF7A2FA02463B69D31A022B1C
:103E900001D9032387E0274B1B6803F00073002B35
:103EA000F0D17B68DA697B681B6A1A437B685B6ABE
:103EB0009B011A437B689B6A5B08013B1B041A4306
:103EC0007B68DB6A1B061B4913434B601B4B0122BB
:103ED0001A60FCF77BFA386108E0FCF777FA0246D3
:103EE0003B69D31A022B01D903235CE0114B1B68F9
:103EF00003F00073002BF0D054E0104B00221A6046
:103F0000FCF764FA386108E0FCF760FA02463B69A6
:103F1000D31A022B01D9032345E0064B1B6803F09B
:103F20000073002BF0D13DE07B689B69012B07D12A
:103F3000012338E000380240007000406000474232
:103F40001B4B5B68FB607B689B69012B28D0FB687F
:103F500003F480027B68DB699A4221D1FB6803F09D
:103F60003F027B681B6A9A421AD1FA6847F6C0730F
:103F700013407A68526A9201934211D1FB6803F4AC
:103F800040327B689B6A5B08013B1B049A4207D165
:103F9000FB6803F070627B68DB6A1B069A4201D003
:103FA000012300E0002318461837BD4680BD00BF3E
:103FB0000038024080B584B000AF786039607B681B
:103FC000002B01D10123CCE0684B1B6803F00703F1
:103FD0003A689A420CD9654B3A68D2B21A70634B70
:103FE0001B6803F007033A689A4201D00123B8E046
:103FF0007B681B6803F00203002B20D07B681B68E2
:1040000003F00403002B05D0594B9B68584A43F436
:10401000E05393607B681B6803F00803002B05D016
:10402000534B9B68524A43F460439360504B9B68E8
:1040300023F0F0027B689B684D4913438B607B68DB
:104040001B6803F00103002B44D07B685B68012BE5
:1040500007D1474B1B6803F40033002B19D1012310
:104060007FE07B685B68022B03D07B685B68032B77
:1040700007D13F4B1B6803F00073002B09D10123CC
:104080006FE03B4B1B6803F00203002B01D10123BF
:1040900067E0374B9B6823F003027B685B68344919
:1040A00013438B60FCF792F9F8600AE0FCF78EF995
:1040B0000246FB68D31A41F28832934201D90323A6
:1040C0004FE02B4B9B6803F00C027B685B689B0006
:1040D0009A42EBD1254B1B6803F007033A689A42DA
:1040E0000CD2224B3A68D2B21A70204B1B6803F0F4
:1040F00007033A689A4201D0012332E07B681B68CB
:1041000003F00403002B08D0194B9B6823F4E05202
:104110007B68DB68164913438B607B681B6803F080
:104120000803002B09D0124B9B6823F460427B6884
:104130001B69DB000E4913438B6000F021F8024637
:104140000B4B9B681B0903F00F030A49CB5C22FA57
:1041500003F3094A1360094B1B681846FCF7F2F891
:10416000002318461037BD4680BD00BF003C02400A
:1041700000380240C0760108B40000200000002092
:104180002DE9B04F94B000AF00237B640023FB64A3
:1041900000233B640023BB64794B9B6803F00C0352
:1041A000082B0DD0082B00F2E180002B02D0042B4D
:1041B00003D0DBE0734BBB64DBE0734BBB64D8E044
:1041C0006F4B5B6803F03F037B646D4B5B6803F4EC
:1041D0008003002B63D06A4B5B689B090022BB63A2
:1041E000FA63BB6BC3F308033B6300237B63D7E92C
:1041F0000C4522462B464FF000004FF000015901BC
:1042000041EAD261500102460B462146511A3961FA
:10421000294663EB01037B614FF000024FF000037E
:10422000D7E904AB59468B01514643EA91635146A5
:104230008A015146B2EB0108594663EB01094FF080
:1042400000024FF000034FEAC90343EA58734FEAF4
:10425000C80290469946234618EB0303BB602B46E1
:1042600049EB0303FB604FF000024FF00003D7E976
:10427000024529464B02214643EAD15321464A02D0
:10428000104619467B6C0022BB62FA62D7E90A230A
:10429000FBF7D6FF02460B461346FB6458E0384B4B
:1042A0005B689B09002218461146C0F308033B6275
:1042B00000237B62D7E9088942464B464FF0000055
:1042C0004FF00001590141EAD261500102460B460C
:1042D0004146B2EB010A494663EB010B4FF0000285
:1042E0004FF000034FEA8B1343EA9A634FEA8A12B6
:1042F000B2EB0A0463EB0B054FF000024FF0000332
:10430000EB0043EA5473E20014461D464346E318AB
:104310003B604B4645EB03037B604FF000024FF0E0
:104320000003D7E9004529468B02214643EA915311
:1043300021468A02104619467B6C0022BB61FA6155
:10434000D7E90623FBF77CFF02460B461346FB64C6
:104350000B4B5B681B0C03F0030301335B003B64F6
:10436000FA6C3B6CB2FBF3F3BB6402E0054BBB643D
:1043700000BFBB6C18465037BD46BDE8B08F00BFCC
:10438000003802400024F40000127A0080B400AF2C
:10439000034B1B681846BD465DF8047B704700BFA1
:1043A000B400002080B500AFFFF7F0FF0246054BD8
:1043B0009B689B0A03F007030349CB5C22FA03F3D3
:1043C000184680BD00380240D076010880B500AFA5
:1043D000FFF7DCFF0246054B9B685B0B03F007030E
:1043E0000349CB5C22FA03F3184680BD0038024033
:1043F000D076010880B582B000AF78607B68002B72
:1044000001D1012342E07B6893F84130DBB2002BFD
:1044100006D17B68002283F8402078680DF0DEF931
:104420007B68242283F841207B681B68DA687B68FC
:104430001B6822F40052DA60786800F09DFE7B6809
:104440001B681A697B681B6822F490421A617B68BA
:104450001B685A697B681B6822F02A025A617B68D4
:104460001B68DA687B681B6842F40052DA607B687C
:1044700000225A647B68202283F841207B68202236
:1044800083F842207B6800225A63002318460837CD
:10449000BD4680BD80B58AB002AFF860B9603B60B0
:1044A0001346FB8000237B61FB6893F84130DBB24D
:1044B000202B75D1BB68002B02D0FB88002B01D1CB
:1044C00001236EE0FB6800225A64FB68212283F816
:1044D0004120FBF77BFF7861FB68FA889A84FB68D0
:1044E000FA88DA84FB689B68B3F5805F08D1FB68C3
:1044F0001B69002B04D10023FB61BB68BB6103E097
:10450000BB68FB610023BB612EE03B6800937B69C5
:1045100000228021F86800F0E9FB0346002B05D05B
:10452000FB68202283F8412003233AE0FB69002B3B
:104530000BD1BB691B881A46FB681B68C2F30802D3
:104540005A60BB690233BB6107E0FB691A78FB68FC
:104550001B685A60FB690133FB61FB68DB8C9BB213
:10456000013B9AB2FB68DA84FB68DB8C9BB2002BC0
:10457000CBD13B6800937B6900224021F86800F0B2
:10458000B5FB0346002B05D0FB68202283F84120B1
:10459000032306E0FB68202283F84120002300E08B
:1045A000022318462037BD4680BD80B584B000AFD9
:1045B000F860B9601346FB80FB6893F84230DBB2C9
:1045C000202B12D1BB68002B02D0FB88002B01D11D
:1045D00001230BE0FB6800221A63FB881A46B968C6
:1045E000F86800F0DCFB034600E0022318461037B1
:1045F000BD4680BD80B59AB000AF78607B681B680F
:104600000C33BB64BB6C53E8003F7B647B6C23F4CE
:1046100090737B667B681B680C337A6E7A653B65AA
:10462000396D7A6D41E80023FB64FB6C002BE5D10A
:104630007B681B6814337B637B6B53E8003F3B63F1
:104640003B6B23F001033B667B681B6814333A6EB7
:104650003A64FB63F96B3A6C41E80023BB63BB6BC4
:10466000002BE5D17B681B6B012B19D17B681B6884
:104670000C333B623B6A53E8003FFB61FB6923F06C
:104680001003FB657B681B680C33FA6DFA62BB6232
:10469000B96AFA6A41E800237B627B6A002BE5D1A4
:1046A0007B681B685B6903F04003402B3FD17B684C
:1046B0001B681433FB60FB6853E8003FBB60BB68BA
:1046C00023F04003BB657B681B681433BA6DBA6185
:1046D0007B617969BA6941E800233B613B69002B42
:1046E000E5D17B68DB6B002B13D07B68DB6B194A51
:1046F0001A657B68DB6B1846FDF7E7FA0346002B6B
:1047000022D07B68DB6B1B6D7A68D26B10469847B2
:104710001AE07B680022DA857B68202283F8422039
:104720007B6800221A63786800F0CAFA0CE07B68A4
:104730000022DA857B68202283F842207B680022F1
:104740001A63786800F0BCFA002318466837BD4643
:1047500080BD00BFFB4E000880B5BAB000AF7860E6
:104760007B681B681B68C7F8E4307B681B68DB68E4
:10477000C7F8E0307B681B685B69C7F8DC30002352
:10478000C7F8D8300023C7F8D430D7F8E43003F0A6
:104790000F03C7F8D830D7F8D830002B0FD1D7F88F
:1047A000E43003F02003002B09D0D7F8E03003F009
:1047B0002003002B03D0786800F01FFC73E2D7F8C9
:1047C000D830002B00F0DE80D7F8DC3003F0010396
:1047D000002B06D1D7F8E03003F49073002B00F0E3
:1047E000D180D7F8E43003F00103002B0BD0D7F8C9
:1047F000E03003F48073002B05D07B685B6C43F0E2
:1048000001027B685A64D7F8E43003F00403002BFC
:104810000BD0D7F8DC3003F00103002B05D07B6808
:104820005B6C43F002027B685A64D7F8E43003F013
:104830000203002B0BD0D7F8DC3003F00103002B70
:1048400005D07B685B6C43F004027B685A64D7F840
:10485000E43003F00803002B11D0D7F8E03003F068
:104860002003002B05D1D7F8DC3003F00103002B27
:1048700005D07B685B6C43F008027B685A647B68F8
:104880005B6C002B00F00A82D7F8E43003F02003C1
:10489000002B08D0D7F8E03003F02003002B02D023
:1048A000786800F0AAFB7B681B685B6903F0400333
:1048B000402B0CBF01230023DBB2C7F8D4307B6848
:1048C0005B6C03F00803002B03D1D7F8D430002B26
:1048D0004FD0786800F09DFA7B681B685B6903F035
:1048E0004003402B41D17B681B681433C7F89C30D0
:1048F000D7F89C3053E8003FC7F89830D7F8983085
:1049000023F04003C7F8D0307B681B681433D7F816
:10491000D020C7F8A820C7F8A430D7F8A410D7F83B
:10492000A82041E80023C7F8A030D7F8A030002B1A
:10493000D9D17B68DB6B002B13D07B68DB6B8A4A99
:104940001A657B68DB6B1846FDF7BFF90346002B41
:1049500016D07B68DB6B1B6D7A68D26B104698476C
:104960000EE078680BF00CFF0AE078680BF008FFA7
:1049700006E078680BF004FF7B6800225A648DE142
:1049800000BF8BE17B681B6B012B40F06781D7F880
:10499000E43003F01003002B00F06081D7F8E03022
:1049A00003F01003002B00F059810023BB607B68EB
:1049B0001B681B68BB607B681B685B68BB60BB686F
:1049C0007B681B685B6903F04003402B40F0CE809E
:1049D0007B68DB6B1B685B68A7F8BE30B7F8BE303E
:1049E000002B00F0A9807B689B8DB7F8BE209A420F
:1049F00080F0A2807B68B7F8BE20DA857B68DB6B2D
:104A0000DB69B3F5807F00F088807B681B680C331E
:104A1000C7F88830D7F8883053E8003FC7F88430AB
:104A2000D7F8843023F48073C7F8B8307B681B68EC
:104A30000C33D7F8B820C7F89420C7F89030D7F8CF
:104A40009010D7F8942041E80023C7F88C30D7F8AD
:104A50008C30002BD9D17B681B6814337B677B6F4C
:104A600053E8003F3B673B6F23F00103C7F8B430C6
:104A70007B681B681433D7F8B420C7F88020FB6725
:104A8000F96FD7F8802041E80023BB67BB6F002B8C
:104A9000E1D17B681B6814333B663B6E53E8003FF3
:104AA000FB65FB6D23F04003C7F8B0307B681B68E3
:104AB0001433D7F8B020FA66BB66B96EFA6E41E8D7
:104AC00000237B667B6E002BE3D17B68202283F87A
:104AD00042207B6800221A637B681B680C33FB64EE
:104AE000FB6C53E8003FBB64BB6C23F01003C7F8BA
:104AF000AC307B681B680C33D7F8AC20BA657B659B
:104B0000796DBA6D41E800233B653B6D002BE3D125
:104B10007B68DB6B1846FDF768F87B6802225A63F6
:104B20007B689A8D7B68DB8D9BB2D31A9BB219464A
:104B3000786800F0CFF8B3E07B689B8DB7F8BE20B3
:104B40009A4240F0AD807B68DB6BDB69B3F5807F18
:104B500040F0A6807B6802225A637B689B8D1946D1
:104B6000786800F0B7F89BE0D94E00087B689A8D12
:104B70007B68DB8D9BB2D31AA7F8CE307B68DB8DC8
:104B80009BB2002B00F08E80B7F8CE30002B00F0E7
:104B900089807B681B680C33BB63BB6B53E8003FA9
:104BA0007B637B6B23F49073C7F8C8307B681B680A
:104BB0000C33D7F8C8207A643B64396C7A6C41E8CE
:104BC0000023FB63FB6B002BE3D17B681B68143372
:104BD0007B627B6A53E8003F3B623B6A23F0010340
:104BE000C7F8C4307B681B681433D7F8C4203A6315
:104BF000FB62F96A3A6B41E80023BB62BB6A002B97
:104C0000E3D17B68202283F842207B6800221A636C
:104C10007B681B680C333B613B6953E8003FFB60DA
:104C2000FB6823F01003C7F8C0307B681B680C33A7
:104C3000D7F8C020FA61BB61B969FA6941E800237D
:104C40007B617B69002BE3D17B6802225A63B7F852
:104C5000CE301946786800F03DF823E0D7F8E4300C
:104C600003F08003002B09D0D7F8E03003F0800375
:104C7000002B03D0786800F058F914E0D7F8E4303E
:104C800003F04003002B0ED0D7F8E03003F04003D0
:104C9000002B08D0786800F098F904E000BF02E02B
:104CA00000BF00E000BFE837BD4680BD80B483B0E0
:104CB00000AF786000BF0C37BD465DF8047B7047DD
:104CC00080B483B000AF786000BF0C37BD465DF89C
:104CD000047B704780B483B000AF78600B467B8064
:104CE00000BF0C37BD465DF8047B704780B586B0C9
:104CF00000AFF860B9603B601346FB713BE03B6A74
:104D0000B3F1FF3F37D0FBF761FB02463B68D31A94
:104D10003A6A9A4202D33B6A002B01D103233AE05C
:104D2000FB681B68DB6803F00403002B23D0BB681F
:104D3000802B20D0BB68402B1DD0FB681B681B68F4
:104D400003F00803082B16D100237B61FB681B6866
:104D50001B687B61FB681B685B687B617B69F8682B
:104D600000F057F8FB6808225A64FB68002283F8B9
:104D7000402001230FE0FB681B681A68BB681340E2
:104D8000BA689A420CBF01230023DBB21A46FB79B2
:104D90009A42B4D0002318461837BD4680BD80B46F
:104DA00085B000AFF860B9601346FB80FB68BA6855
:104DB0009A62FB68FA889A85FB68FA88DA85FB684C
:104DC00000225A64FB68222283F84220FB681B6998
:104DD000002B07D0FB681B68DA68FB681B6842F48D
:104DE0008072DA60FB681B685A69FB681B6842F0D6
:104DF00001025A61FB681B68DA68FB681B6842F0B5
:104E00002002DA60002318461437BD465DF8047BA3
:104E1000704780B495B000AF78607B681B680C3336
:104E20007B637B6B53E8003F3B633B6B23F49073E6
:104E3000FB647B681B680C33FA6C3A64FB63F96BA8
:104E40003A6C41E80023BB63BB6B002BE5D17B6868
:104E50001B6814333B623B6A53E8003FFB61FB690C
:104E600023F00103BB647B681B681433BA6CFA62DD
:104E7000BB62B96AFA6A41E800237B627B6A002B55
:104E8000E5D17B681B6B012B19D17B681B680C3348
:104E9000FB60FB6853E8003FBB60BB6823F0100376
:104EA0007B647B681B680C337A6CBA617B617969BF
:104EB000BA6941E800233B613B69002BE5D17B687F
:104EC000202283F842207B6800221A6300BF5437F7
:104ED000BD465DF8047B704780B584B000AF786054
:104EE0007B689B6BFB60FB680022DA85F8680BF03F
:104EF00047FC00BF1037BD4680BD80B584B000AF11
:104F000078607B689B6BFB60FB680022DA85FB683E
:104F1000202283F84220FB6800221A63F868FFF71A
:104F2000CFFE00BF1037BD4680BD80B485B000AF56
:104F300078607B6893F84130DBB2212B3ED17B68EF
:104F40009B68B3F5805F14D17B681B69002B10D17F
:104F50007B681B6AFB60FB681B881A467B681B68C2
:104F6000C2F308025A607B681B6A9A1C7B681A624B
:104F700008E07B681B6A591C7A6811621A787B68A2
:104F80001B685A607B68DB8C9BB2013B9BB27A68E2
:104F90001946D184002B0FD17B681B68DA687B68C7
:104FA0001B6822F08002DA607B681B68DA687B6825
:104FB0001B6842F04002DA60002300E0022318463A
:104FC0001437BD465DF8047B704780B582B000AFF2
:104FD00078607B681B68DA687B681B6822F0400297
:104FE000DA607B68202283F841207868FFF75EFE54
:104FF000002318460837BD4680BD80B58CB000AF91
:1050000078600023FB620023BB627B6893F8423028
:10501000DBB2222B40F0AA807B689B68B3F5805FEF
:1050200015D17B681B69002B11D17B689B6ABB6221
:105030007B681B685B689BB2C3F308039AB2BB6AC8
:105040001A807B689B6A9A1C7B689A6224E07B6862
:105050009B6AFB627B689B68B3F5805F07D07B68C7
:105060009B68002B0AD17B681B69002B06D17B68EB
:105070001B685B68DAB2FB6A1A7008E07B681B6821
:105080005B68DBB203F07F03DAB2FB6A1A707B68FD
:105090009B6A5A1C7B689A627B68DB8D9BB2013BE2
:1050A0009BB27A681946D185002B5DD17B681B685D
:1050B000DA687B681B6822F02002DA607B681B6874
:1050C000DA687B681B6822F48072DA607B681B6890
:1050D0005A697B681B6822F001025A617B682022B2
:1050E00083F842207B6800225A637B681B6B012B8C
:1050F00035D17B6800221A637B681B680C337B61A7
:105100007B6953E8003F3B613B6923F010037B62FE
:105110007B681B680C337A6A3A62FB61F9693A6A08
:1051200041E80023BB61BB69002BE5D17B681B68AC
:105130001B6803F01003102B0AD10023FB607B686F
:105140001B681B68FB607B681B685B68FB60FB6817
:105150007B689B8D19467868FFF7BCFD02E0786894
:105160000BF0F0FA002302E0002300E002231846CF
:105170003037BD4680BD00002DE9B04FC0B000AF54
:10518000C7F8F400D7F8F4301B681B6923F44050CB
:10519000D7F8F430D968D7F8F4301A6840EA010338
:1051A0001361D7F8F4309A68D7F8F4301B691A43C2
:1051B000D7F8F4305B691A43D7F8F430DB6913434E
:1051C000C7F8F830D7F8F4301B68DB6823F41641D1
:1051D00021F00C01D7F8F4301A68D7F8F8300B43F7
:1051E000D360D7F8F4301B685B6923F44070D7F8BC
:1051F000F4309969D7F8F4301A6840EA0103536132
:10520000D7F8F4301A688F4B9A4205D0D7F8F430AB
:105210001A688D4B9A4204D1FFF7D8F8C7F8FC0002
:1052200003E0FFF7BFF8C7F8FC00D7F8F430DB69FC
:10523000B3F5004F40F00C81D7F8FC300022C7F8DE
:10524000E830C7F8EC20D7E93A4522462B469118BA
:10525000B9655B41FB65D7E91623214612EB0108CE
:10526000294643EB01094FF000024FF000034FEADB
:10527000C90343EA58734FEAC80290469946234649
:1052800018EB0303C7F8E0302B4649EB0303C7F8DC
:10529000E430D7F8F4305B680022C7F8D830C7F89C
:1052A000DC20D7E936120B46DB183B65134642EB90
:1052B00003037B65D7E91423D7E93801FAF7C0FF68
:1052C00002460B46614BA3FB02235B091C01D7F886
:1052D000FC300022C7F8D030C7F8D420D7E9348991
:1052E00042464B469118B9645B41FB64D7E91223EF
:1052F000414612EB010A494643EB010B4FF0000215
:105300004FF000034FEACB0343EA5A734FEACA0255
:1053100092469B4643461AEB0303C7F8C8304B46F8
:105320004BEB0303C7F8CC30D7F8F4305B680022AE
:10533000C7F8C030C7F8C420D7E930120B46DB18D5
:105340003B64134642EB03037B64D7E91023D7E9A0
:105350003201FAF775FF02460B4611463B4BA3FBA1
:1053600001235B09642202FB03F3CB1ADB0003F188
:105370003202364BA3FB02235B095B0003F4F87394
:105380001C44D7F8FC300022C7F8B830C7F8BC205E
:10539000D7E92E8942464B469118B9635B41FB63BE
:1053A000D7E90E2341465118396349464B417B6387
:1053B0004FF000024FF00003D7E90CAB5946CB0089
:1053C000514643EA51735146CA00104619460346F6
:1053D00042469B18C7F8B0304B460A4642EB0303DF
:1053E000C7F8B430D7F8F4305B680022C7F8A830AB
:1053F000C7F8AC20D7E92A120B46DB18BB6213466C
:1054000042EB0303FB62D7E90A23D7E92C01FAF741
:1054100017FF02460B460D4BA3FB02135B096421E9
:1054200001FB03F3D31ADB003233084AA2FB032348
:105430005B0903F00702D7F8F4301B6822449A6036
:1054400006E100BF00100140001401401F85EB5130
:10545000D7F8FC300022C7F8A030C7F8A420D7E95D
:10546000288942464B46911839625B417B62D7E9F5
:10547000082341465418494643EB01054FF000020A
:105480004FF00003EB0043EA5473E20014461D465C
:105490004346E318C7F898304B4645EB0303C7F87B
:1054A0009C30D7F8F4305B680022C7F89030C7F81A
:1054B00094204FF000024FF00003D7E9244529461D
:1054C0008B00214643EA917321468A00D7E92601E1
:1054D000FAF7B6FE02460B46604BA3FB02235B09BC
:1054E0001C01D7F8FC300022C7F88830C7F88C20A0
:1054F000D7E9228942464B469118B9615B41FB616D
:10550000D7E9062341465118396149464B417B6131
:105510004FF000024FF00003D7E904AB5946CB002F
:10552000514643EA51735146CA0010461946034694
:1055300042469B18C7F880304B460A4642EB0303AD
:10554000C7F88430D7F8F4305B680022BB67FA678D
:105550004FF000024FF00003D7E91E8949468B0047
:10556000414643EA917341468A00D7E92001FAF7A0
:1055700067FE02460B461146384BA3FB01235B092D
:10558000642202FB03F3CB1A1B013233334AA2FB22
:1055900003235B0903F0F0031C44D7F8FC3000221E
:1055A0003B677A67D7E91C8942464B469118B96038
:1055B0005B41FB60D7E902234146511839604946F7
:1055C0004B417B604FF000024FF00003D7E900AB86
:1055D0005946CB00514643EA51735146CA00104622
:1055E0001946034642469B18BB664B460A4642EBA9
:1055F0000303FB66D7F8F4305B6800223B667A66EB
:105600004FF000024FF00003D7E9188949468B009C
:10561000414643EA917341468A00D7E91A01FAF7F5
:105620000FFE02460B460D4BA3FB02135B096421E0
:1056300001FB03F3D31A1B013233084AA2FB0323F5
:105640005B0903F00F02D7F8F4301B6822449A601C
:1056500000BF07F58077BD46BDE8B08F1F85EB51D1
:1056600084B080B584B000AF786007F11C0080E89A
:105670000E0097F82130012B23D17B689B6B23F41C
:1056800080327B689A637B68DB6823F4840323F0B1
:1056900040037A68D3607B68DB6823F440127B6840
:1056A000DA6097F82830012B05D17B68DB6843F47A
:1056B00080127B68DA60786801F0E8FA0346FB73D1
:1056C0001BE07B68DB6843F040027B68DA60786847
:1056D00001F0DCFA0346FB7397F82530002B06D166
:1056E0007B689B6B43F480327B689A6305E07B6840
:1056F0009B6B23F480327B689A63BB7F012B0BD1B9
:105700007B689B6843F006027B689A607B689B68B5
:1057100043F020027B689A60FB7B18461037BD4639
:10572000BDE8804004B0704780B487B000AFF86037
:10573000B9601346FB71FB79022B65D1BB68414A06
:10574000934206D9BB68404A934202D20F237B6141
:1057500062E0BB683C4A934206D3BB683B4A934233
:1057600002D20E237B6157E0BB68384A934206D3CE
:10577000BB68374A934202D20D237B614CE0BB6881
:10578000334A934206D3BB68324A934202D80C2371
:105790007B6141E0BB682F4A934206D9BB682E4A21
:1057A000934202D80B237B6136E0BB682A4A9342BE
:1057B00006D9BB68294A934202D80A237B612BE0B1
:1057C000BB68264A934206D9BB68254A934202D257
:1057D00009237B6120E0BB68214A934206D3BB6862
:1057E000204A934202D808237B6115E0BB681D4A1A
:1057F000934206D9BB681C4A934202D207237B61BD
:105800000AE006237B6107E0FB79002B02D1092324
:105810007B6101E009237B61FB68DB6823F4705244
:10582000FB68DA60FB68DA687B699B0203F47053FB
:105830001A43FB68DA60002318461C37BD465DF842
:10584000047B7047BFACD800C0E1E4000024F40042
:10585000807306019F491A01FF2C31013FA44C01BE
:1058600000366E011FABA6010048E80180B483B08A
:1058700000AF78607B689B6843F001027B689A60A8
:10588000002318460C37BD465DF8047B704780B492
:1058900083B000AF78607B689B6823F001027B686F
:1058A0009A60002318460C37BD465DF8047B7047AC
:1058B00080B584B000AF78600B46FB700023FB60BE
:1058C0007B68DB6823F0C0427B68DA60FB78012BE1
:1058D00015D17B68DB6843F000527B68DA600A20F0
:1058E000FAF780FDFB680A33FB60786801F03FF946
:1058F0000346012B1ED0FB68C72BF0D91AE0FB78BA
:10590000002B15D17B68DB6843F080427B68DA604E
:105910000A20FAF767FDFB680A33FB60786801F03C
:1059200026F90346002B05D0FB68C72BF0D901E010
:10593000012305E0FB68C82B01D1012300E000230F
:1059400018461037BD4680BD84B080B586B000AF24
:10595000786007F1240080E80E000023FB757B6867
:10596000FB6000233B6109E07A683B6940339B00A0
:10597000134400225A603B6901333B613B690E2BA3
:10598000F2D997F82E30002B1CD1FB6803F5006389
:105990005B68FA6802F5006243F0020353607B68BB
:1059A0009B6B43F400127B689A637B689B6B23F4C8
:1059B00000227B689A637B689B6B23F480227B6860
:1059C0009A630BE07B689B6B23F400127B689A63FD
:1059D0007B689B6B43F400227B689A63FB6803F54A
:1059E00060631A460023136097F82930012B0DD10C
:1059F00097F82730002B04D10021786800F068F96F
:105A000008E00121786800F063F903E00321786879
:105A100000F05EF91021786800F0FAF80346002BD8
:105A200001D00123FB75786800F024F90346002BB0
:105A300001D00123FB75FB6803F500631A460023C0
:105A40001361FB6803F500631A4600235361FB688A
:105A500003F500631A460023D36100233B6143E052
:105A60003B695A01FB68134403F510631B6803F09C
:105A70000043B3F1004F18D13B69002B0AD13B69B9
:105A80005A01FB68134403F510631A464FF0006394
:105A9000136013E03B695A01FB68134403F510637C
:105AA0001A464FF09043136008E03B695A01FB68C7
:105AB000134403F510631A46002313603B695A012F
:105AC000FB68134403F510631A46002313613B6916
:105AD0005A01FB68134403F510631A464FF67F33EF
